:1000000028C04CC04BC04AC077C348C047C046C098
:1000100045C044C043C042C041C040C03FC099D663
:100020008DDAF27D07D66DAA796EA91BC43FC7CEC3
:10003000C1594E73994A1E933417767AC7E101026B
:1000400004081020010101010101003800372C01D2
:10005000400111241FBECFE5D2E0DEBFCDBF20E0BE
:10006000A6E6B0E001C01D92A139B207E1F710E0A9
:10007000A0E6B0E0E4E8FCE002C005900D92A636F0
:10008000B107D9F710E0C8E2D0E003C02197FE0124
:10009000B7D4C732D107D1F71CD3E8C5B1CF0F937E
:1000A0001F93CF93DF9380E790E0FFD068E280E773
:1000B00090E0D2D282E190E0D1D5D82F81E190E0DA
:1000C000CDD5C82F80E190E0C9D54D2F6C2FA7D298
:1000D000609368007093690080936A0090936B004E
:1000E000C0E0D0E0FE01E25EFF4F0491FE01E25D60
:1000F000FF4F1491CE01B2D5E02FE127E81316C0CF
:1001000020916C0030916D0040916E0050916F0015
:10011000BE0180E790E00BD280916600909167006D
:10012000019690936700809366000CC02091680050
:100130003091690040916A0050916B00BE0180E7E8
:1001400090E0F5D12196C031D10561F680E790E0CD
:10015000DF91CF911F910F9116C1982F90959535F2
:1001600058F4892F63E0E0D3482F892F6DEFDCD35B
:1001700020E060E081501BC09A3A68F49555892FC1
:100180006DEFD2D34FEF480F892F63E0CDD320E03E
:10019000682F80E00CC09A5A892F6DEFC5D33FEFCE
:1001A000380F892F63E0C0D320E040E0632F46C2C0
:1001B000CF92DF92EF92FF920F931F93CF93DF9333
:1001C00000E010E0C82ED12CE12CF12CC0E0D0E0F2
:1001D00080E790E03DD2C817D90790F480E790E01F
:1001E00037D2BC019C2F80E0B9D3862F800FB5DFBA
:1001F0009B01AC01BE0180E790E099D12196E8CF48
:1002000080E790E0C0D0C701B601E3D20F5F1F4F77
:10021000011585E01807D1F6DF91CF911F910F915D
:10022000FF90EF90DF90CF900895809166009091BD
:100230006700409710F08FE0BBCF85B7877E806165
:1002400085BF85B7806285BF85B7806285BF889589
:1002500085B78F7D85BF089522E541E060E170E0BC
:1002600080E790E047D140E06FEF80E0D8D1609325
:100270006C0070936D0080936E0090936F000895F2
:1002800080E790E000C0CF93DF93EC018F819885E9
:10029000009709F053D48D8187FD04C060E0DF91A1
:1002A000CF91D4C2DF91CF910895CF93DF93EC012A
:1002B0008D8187FD05C061E0C9D260E08D8101D3E9
:1002C00081E08883DF91CF910895EF92FF920F93A1
:1002D0001F93CF93DF93EC017B018F81988500976B
:1002E00009F02CD49C858985981719F084E090E05A
:1002F00002C083E090E0B70120D38C019C838B8304
:1003000085D398878F83009739F0A80160E070E06B
:100310009ED4FA82E98204C01C821B821A8219824E
:10032000DF91CF911F910F91FF90EF900895FC0105
:1003300041E094858185981340E0562F529556955B
:10034000569553705487862F90E09C0174E0359544
:1003500027957A95E1F7237021879595879595954F
:100360008795837082876370638787819085892BE7
:1003700049F081E0521380E0481721F061817281D9
:10038000CF01A3CF0895CF92DF92EF92FF920F9308
:100390001F93CF93DF93CDB7DEB727970FB6F894AF
:1003A000DEBF0FBECDBF8C01DC0117968D919C91F5
:1003B0001897892B09F462C0E6D1F801C584D68468
:1003C000E784F088DC01CB018C199D09AE09BF09D7
:1003D0008C329140A105B10578F3F894D8011396B9
:1003E0008D919C9114979A8389831796ED91FC9136
:1003F00018977F01BFEFEB1AFB0A80818F83D8012A
:100400005196ED91FC915297908153968C91982B37
:100410009E839081809589238D838D818C8388E054
:100420008B835E816D814F813B812C8189819A8193
:10043000D701508347FD252F3A952083262F39F089
:10044000441F00C000006083000000C0F2CF38E00D
:100450004D9160830000019761F7D8015296FC939B
:10046000EE9351974F833B832C839A8389837894AF
:100470008AD1F801658776878787908B27960FB694
:10048000F894DEBF0FBECDBFDF91CF911F910F91CA
:10049000FF90EF90DF90CF9008951F93CF93DF935D
:1004A000EC01162F8881882329F08D8187FD02C0F9
:1004B00060E0CCD11D838881882331F061E0812FF9
:1004C000C5D160E0812FFDD1812F90E0FC01EC5B74
:1004D000FF4FE491F0E0E65BFF4FE491F0E0FA8B30
:1004E000E98BFC01E25CFF4FE491EB8BDF91CF9154
:1004F0001F910895EF92FF921F93CF93DF93EC012A
:100500007B01142F18821E8218861F821D861E866C
:100510001F86188A622F0BDFB701CE01D6DE612F4E
:10052000CE01DF91CF911F91FF90EF90B6CF4F9208
:100530005F926F927F928F929F92AF92BF92DF9263
:10054000EF92FF920F931F93CF93DF93FC01EB0188
:1005500089019A01818192816817790708F04FC05B
:10056000290166247724D42C812E922EA32EBB241D
:10057000E82CF02E4681442389F0A42FB0E0842D8E
:1005800090E0BD01DAD1D92E882D90E0BD01D5D102
:10059000E92E802F90E0BD01D0D1F92E8485918580
:1005A000A781B085891307C0CE0163E070E0C5D193
:1005B000A80FB91F16C0CC0FDD1FCC0FDD1FAC0F6D
:1005C000BD1F032F112722273327ED01C80FD11D8F
:1005D000411102C0902F04C0842F90E0B801ADD12A
:1005E00098838185ED01C80FD11DD8828285ED01E8
:1005F000C80FD11DE8828385A80FB11DFC92DF9141
:10060000CF911F910F91FF90EF90DF90BF90AF902F
:100610009F908F907F906F905F904F9008950F9371
:100620001F93962F50E060E070E0592B8A019B01E8
:10063000282BC901B8011F910F910895962F50E002
:1006400060E070E0592B682BCB01BA01922B089522
:10065000FC01818192810895FF920F931F93CF93A4
:10066000DF93EC01FF24F394F60E2E81F21659F17C
:100670000F8118852150A9F06F3F49F430E040E028
:1006800050E06FEF7FEF80E090E09ED10CC08F2DA7
:1006900090E0982F88270197622F70E05FD19B012F
:1006A00002C020E030E0F8014B815C81CF01801B6B
:1006B000910B8417950730F4808190E0B9013DD10A
:1006C0009193F2CFFE82DF91CF911F910F91FF9016
:1006D0000895A3D0E4DCA9DDFECF83B7887F83BF74
:1006E0008AB58C7F81608ABD83B7877F83BF83B7DC
:1006F000887F836083BF089578941F920F920FB60E
:100700000F9211242F933F938F939F93AF93BF9397
:100710008091850090918600A0918700B09188001B
:10072000309184002CE7230F2D3728F02FEF230F73
:100730000196A11DB11D20938400809385009093A4
:100740008600A0938700B0938800809189009091E3
:100750008A00A0918B00B0918C000196A11DB11D63
:100760008093890090938A00A0938B00B0938C00B3
:10077000BF91AF919F918F913F912F910F900FBE9D
:100780000F901F9018953FB7F89480918900909131
:100790008A00A0918B00B0918C002FB508B602FEA4
:1007A00005C02F3F19F00196A11DB11D3FBFBA2F03
:1007B000A92F982F8827820F911DA11DB11DBC0163
:1007C000CD0142E0660F771F881F991F4A95D1F728
:1007D0000895CF92DF92EF92FF92CF93DF936B0158
:1007E0007C01D1DFEB01C114D104E104F10471F00B
:1007F000CADF6C1B7D0B683E7340A8F381E0C81A0A
:10080000D108E108F108C851DC4FEDCFDF91CF915D
:10081000FF90EF90DF90CF900895789480B7806834
:1008200080BF80B7806480BF8CB580648CBD8FEF43
:100830008DBD80B7807F876080BF89B7846089BFA6
:100840004CDF86B1876086B9379A0895CF93DF93DE
:1008500090E0FC01E25CFF4F2491FC01EC5BFF4F58
:100860008491882359F190E0FC01E45BFF4FE4910F
:10087000CE2FD0E0FC01E65BFF4F8491611108C0F0
:100880009FB7F8948881E22FE095E823E8830EC0B3
:10089000623071F4A82FB0E09FB7F8948881322FAE
:1008A000309583238883EC91E22BEC939FBF06C0A5
:1008B0008FB7F894E881E22BE8838FBFDF91CF9167
:1008C0000895282F30E0F901E25CFF4F9491F9017F
:1008D000EC5BFF4FE491EE2331F1811103C08AB547
:1008E0008F7304C0813021F48AB58F7C8ABD05C026
:1008F000843019F48CB58F7C8CBDF0E0E65BFF4F43
:10090000A491B0E0611109C02FB7F8948C91E92F40
:10091000E095E823EC932FBF08958FB7F894EC91FE
:10092000E92BEC938FBF0895002480FD060E660F1F
:1009300011F08695D1F7802D08950024552704C025
:10094000080E591F880F991F009729F07695679513
:10095000B8F37105B9F7802D952F0895AA1BBB1B1D
:1009600051E107C0AA1FBB1FA617B70710F0A61BAF
:10097000B70B881F991F5A95A9F780959095BC01D0
:10098000CD010895A1E21A2EAA1BBB1BFD010DC0CB
:10099000AA1FBB1FEE1FFF1FA217B307E407F5072F
:1009A00020F0A21BB30BE40BF50B661F771F881F0B
:1009B000991F1A9469F760957095809590959B01A1
:1009C000AC01BD01CF010895052E97FB16F40094EC
:1009D0000FD057FD05D0D6DF07FC02D046F408C083
:1009E00050954095309521953F4F4F4F5F4F08955B
:1009F00090958095709561957F4F8F4F9F4F08958B
:100A0000EE0FFF1F0590F491E02D09940F931F93B3
:100A1000CF93DF938230910510F482E090E0E09173
:100A20008F00F091900020E030E0A0E0B0E030973F
:100A300019F1408151810281138148175907C8F08B
:100A40008417950769F4109731F012960C9312975A
:100A500013961C9327C000938F001093900022C020
:100A60002115310519F04217530718F49A01BD01F9
:100A7000EF01DF01F801DBCF21153105F9F0281B6B
:100A8000390B2430310580F48A819B816115710511
:100A900021F0FB019383828304C0909390008093A4
:100AA0008F00FE01329644C0FE01E20FF31F8193D6
:100AB000919322503109398328833AC020918D00C7
:100AC00030918E00232B41F420916200309163001D
:100AD00030938E0020938D00209160003091610052
:100AE0002115310541F42DB73EB740916400509176
:100AF0006500241B350BE0918D00F0918E00E2170C
:100B0000F307A0F42E1B3F0B2817390778F0AC0130
:100B10004E5F5F4F2417350748F04E0F5F1F50930D
:100B20008E0040938D008193919302C0E0E0F0E04D
:100B3000CF01DF91CF911F910F910895CF93DF9354
:100B4000009709F481C0FC01329713821282A091B0
:100B50008F00B0919000109781F420813181820F35
:100B6000931F20918D0030918E002817390751F581
:100B7000F0938E00E0938D0067C0ED0120E030E03F
:100B8000CE17DF0740F44A815B819E014115510574
:100B9000F1F0EA01F5CFD383C28340815181840F04
:100BA000951FC817D90759F488819981840F951F1B
:100BB0000296918380838A819B819383828321150E
:100BC000310529F4F0939000E0938F003DC0E901D6
:100BD000FB83EA8349915991C40FD51FEC17FD0798
:100BE00061F480819181840F951F0296E9019983B8
:100BF0008883828193819B838A83E0E0F0E0129670
:100C00008D919C911397009719F0FD01DC01F7CFAE
:100C10008D919C9111979D012E5F3F4F820F931FE5
:100C200020918D0030918E002817390769F4309794
:100C300029F41092900010928F0002C01382128249
:100C4000B0938E00A0938D00DF91CF910895DC01C9
:100C500001C06D9341505040E0F70895E199FECFF7
:100C60009FBB8EBBE09A99278DB3089510E0C8E230
:100C7000D0E003C0FE01C4DE2196C932D107D1F70E
:040C8000F894FFCF16
:060C840000009100800059
:00000001FF
