:1000000016C025C024C023C058C021C020C01FC0B6
:100010001EC01DC01CC01BC01AC019C018C00102E0
:1000200004081020010101010101003800371124EA
:100030001FBECFE5D2E0DEBFCDBF20E0A0E6B0E03E
:1000400001C01D92A936B207E1F724D05CC1D8CF18
:10005000CF93DF93C0E2D0E0FE01B0976491CE0170
:1000600044D12196C034D105B9F761E081E0DF9138
:10007000CF91CDC061E081E005D164EF71E080E017
:1000800090E088D060E081E0FDD064EF71E080E036
:1000900090E080C0A3D0DCDFEDDFFECF83B7887FA8
:1000A00083BF8AB58C7F81608ABD83B7877F83BF1A
:1000B00083B7887F836083BF089578941F920F92DF
:1000C0000FB60F9211242F933F938F939F93AF936B
:1000D000BF938091610090916200A0916300B09104
:1000E0006400309160002CE7230F2D3728F02FEFAC
:1000F000230F0196A11DB11D209360008093610024
:1001000090936200A0936300B093640080916500B7
:1001100090916600A0916700B09168000196A11DC2
:10012000B11D8093650090936600A0936700B09323
:100130006800BF91AF919F918F913F912F910F9048
:100140000FBE0F901F9018953FB7F89480916500EF
:1001500090916600A0916700B09168002FB508B635
:1001600002FE05C02F3F19F00196A11DB11D3FBF32
:10017000BA2FA92F982F8827820F911DA11DB11D7D
:10018000BC01CD0142E0660F771F881F991F4A9579
:10019000D1F70895CF92DF92EF92FF92CF93DF9342
:1001A0006B017C01D1DFEB01C114D104E104F10446
:1001B00071F0CADF6C1B7D0B683E7340A8F381E0D1
:1001C000C81AD108E108F108C851DC4FEDCFDF9122
:1001D000CF91FF90EF90DF90CF900895789480B703
:1001E000806880BF80B7806480BF8CB580648CBD20
:1001F0008FEF8DBD80B7807F876080BF89B78460B7
:1002000089BF4CDF86B1876086B9379A0895CF934E
:10021000DF9390E0FC01E25EFF4F2491FC01EC5D76
:10022000FF4F8491882359F190E0FC01E45DFF4F7A
:10023000E491CE2FD0E0FC01E65DFF4F8491611187
:1002400008C09FB7F8948881E22FE095E823E883FF
:100250000EC0623071F4A82FB0E09FB7F894888187
:10026000322F309583238883EC91E22BEC939FBF50
:1002700006C08FB7F894E881E22BE8838FBFDF9147
:10028000CF910895282F30E0F901E25EFF4F94915D
:10029000F901EC5DFF4FE491EE2331F1811103C0D0
:1002A0008AB58F7304C0813021F48AB58F7C8ABDF2
:1002B00005C0843019F48CB58F7C8CBDF0E0E65D10
:1002C000FF4FA491B0E0611109C02FB7F8948C9151
:1002D000E92FE095E823EC932FBF08958FB7F894AA
:1002E000EC91E92BEC938FBF0895262FE199FECF77
:1002F0001CBA9FBB8EBB2DBB0FB6F894E29AE19A55
:0A0300000FBE01960895F894FFCF98
:00000001FF
