:1000000018C03CC03BC03AC0DCC238C037C036C0A4
:1000100035C034C033C032C031C030C02FC001023F
:1000200004081020010101010101003800372A01F4
:100030004A0111241FBECFE5D2E0DEBFCDBF10E0E4
:10004000A0E6B0E0E4E2FBE002C005900D92A43C23
:10005000B107D9F720E0A4ECB0E001C01D92AC3E9E
:10006000B207E1F710E0C0E3D0E003C02297FE0141
:100070001BD4CE32D107D1F791D248C5C1CFCF938F
:10008000DF938CEC90E060D1C0E0D0E02091C40020
:100090003091C5004091C6005091C700BE018CEC64
:1000A00090E0E1D12196C031D10581F768E28CEC76
:1000B00090E037D28CEC90E0DF91CF9150C1CF929D
:1000C000DF92EF92FF92CF93DF936B017C01C0E050
:1000D000D0E02091C8003091C9004091CA005091F1
:1000E000CB00BE018CEC90E0BED12196C031D10591
:1000F00081F78CEC90E033D1C701B601CDD2E12C71
:10010000F12C2091C4003091C5004091C60050915F
:10011000C700B7018CEC90E0A6D18FEFE81AF80A7F
:1001200080E1E816F10469F78CEC90E0DF91CF9163
:10013000FF90EF90DF90CF9012C12F923F924F929D
:100140005F926F927F928F929F92AF92BF92CF9267
:10015000DF92EF92FF920F931F93CF93DF9300D024
:1001600000D0CDB7DEB72A013B0168017901A901B2
:100170009801220F331F441F551F29833A834B8355
:100180005C831C01812C912C540112E4841495048D
:10019000A604B70421F1F10181911F0181278D325D
:1001A00061F01CF4803279F011C08E3219F08F3278
:1001B00051F00CC0C701B60104C069817A818B81FE
:1001C0009C817DDF03C0C701B60166D2C701B601BD
:1001D00063D2FFEF8F1A9F0AAF0ABF0AD7CF0F90E3
:1001E0000F900F900F90DF91CF911F910F91FF9083
:1001F000EF90DF90CF90BF90AF909F908F907F90C7
:100200006F905F904F903F902F9008950F931F93A2
:1002100000E911E020E030E044E250E060E070E00E
:1002200080EA90E08ADF68E873E180E090E034D211
:1002300008EC10E020E030E04AE350E060E070E0DD
:1002400086E690E07ADF68E873E180E090E01F9155
:100250000F9122C223E041E060E170E08CEC90E07D
:100260001CD04FEF60E080E053D16093C8007093E2
:10027000C9008093CA009093CB0040E060E080E02A
:1002800047D16093C4007093C5008093C6009093DB
:10029000C70008958CEC90E04AC0FF920F931F9323
:1002A000CF93DF93EC01CB01F22E7983688363E077
:1002B00070E095D28C019B838A834C831D822B87AF
:1002C0001C861D861E861F8650E0FA01EC5DFF4FDE
:1002D000E491F0E0E65DFF4FE491F0E0F98BE88B0C
:1002E000FA01E25EFF4F44914A8BE2D29F838E83F4
:1002F000009721F0A80160E070E001D4F0FE04C096
:1003000081E0888719860BC0F2FE06C081E08887ED
:1003100082E089871A8605C0188681E0898782E095
:100320008A87DF91CF911F910F91FF900895CF930E
:10033000DF93EC018E819F81009709F051D360E03B
:100340008C81DF91CF91E5C1CF93DF93EC0161E028
:100350008C81DFD160E08C81DF91CF9111C2CF928F
:10036000DF92EF92FF920F931F93CF93DF93CDB75E
:10037000DEB727970FB6F894DEBF0FBECDBF8C0156
:10038000DC0116968D919C911797892B09F45CC01E
:100390005FD1F801C484D584E684F7846C197D09A3
:1003A0008E099F09623371058105910588F3F894E0
:1003B000828193819A8389830680F781E02D7F0172
:1003C000BFEFEB1AFB0A80818F83D8015096ED9125
:1003D000FC915197908152968C91982B9E8390819D
:1003E000809589238D838D818C8388E08B835E81CA
:1003F0006D814F813B812C8189819A81D701508306
:1004000047FD252F3A952083262F39F0441F00C041
:1004100000006083000000C0F2CF38E04D9160839F
:100420000000019761F7D8015196FC93EE93509725
:100430004F833B832C839A838983789409D1F80175
:10044000648775878687978727960FB6F894DEBFEF
:100450000FBECDBFDF91CF911F910F91FF90EF9015
:10046000DF90CF9008958F929F92AF92BF92CF92DC
:10047000DF92EF92FF920F931F93CF93DF93FC01D4
:100480004B0189019A01808191816817790798F55C
:10049000C901AA27BB27A82EC12ED22EE32EFF24E6
:1004A000BC2CD02FC581CC2379F0D0E090E0BE01E8
:1004B00096D1A92E8C2D90E0BE0191D1B92E802F1E
:1004C00090E0BE018CD1D92FC40163E070E087D1E8
:1004D00026813781280F391F8085D901A80FB11DCA
:1004E000AC928185D901A80FB11DBC928285F9011A
:1004F000E80FF11DD083DF91CF911F910F91FF90F5
:10050000EF90DF90CF90BF90AF909F908F90089525
:10051000962F50E060E070E0592B682BCB01BA01B8
:100520000895FF920F931F93CF93DF93EC01FF2465
:10053000F394F60E2D81F21659F10E811F81215090
:10054000A9F06F3F49F430E040E050E06FEF7FEFFB
:1005500080E090E069D10CC08F2D90E0982F882723
:100560000197622F70E04CD19B0102C020E030E087
:10057000F8018A819B81AF01401B510B4817590735
:1005800030F4808190E0B9012AD19193F2CFFD82BD
:10059000DF91CF911F910F91FF900895A1D06FDD52
:1005A00035DEFECF83B7887F83BF8AB58C7F8160BD
:1005B0008ABD83B7877F83BF83B7887F836083BF0C
:1005C000089578941F920F920FB60F9211242F93D3
:1005D0003F938F939F93AF93BF938091E00090914F
:1005E000E100A091E200B091E3003091DF002CE740
:1005F000230F2D3728F02FEF230F0196A11DB11DDA
:100600002093DF008093E0009093E100A093E2004C
:10061000B093E3008091E4009091E500A091E600A2
:10062000B091E7000196A11DB11D8093E400909365
:10063000E500A093E600B093E700BF91AF919F91D2
:100640008F913F912F910F900FBE0F901F90189593
:100650003FB7F8948091E4009091E500A091E60006
:10066000B091E7002FB508B602FE05C02F3F19F084
:100670000196A11DB11D3FBF6627782F892F9A2FA4
:10068000620F711D811D911D42E0660F771F881F4B
:10069000991F4A95D1F70895CF92DF92EF92FF927A
:1006A000CF93DF936B017C01D3DFEB01C114D10445
:1006B000E104F10471F0CCDF6C1B7D0B683E7340EC
:1006C000A8F381E0C81AD108E108F108C851DC4F4D
:1006D000EDCFDF91CF91FF90EF90DF90CF90089515
:1006E000789480B7806880BF80B7806480BF8CB505
:1006F00080648CBD8FEF8DBD80B7807F876080BFA9
:1007000089B7846089BF4EDF86B1876086B9379A22
:100710000895CF93DF9390E0FC01E25EFF4F2491B8
:10072000FC01EC5DFF4F8491882339F190E0FC01DE
:10073000E45DFF4FA491B0E0FC01E65DFF4F8491C2
:10074000611106C09FB7F8948C912095822313C045
:10075000623069F4C82FD0E09FB7F8948C91322FA3
:10076000309583238C938881822B888305C09FB723
:10077000F8948C91822B8C939FBFDF91CF91089539
:10078000A82FB0E0FD01E25EFF4F9491FD01EC5D0A
:10079000FF4FE491EE2311F1811103C08AB58F73ED
:1007A00004C0813021F48AB58F7C8ABD05C08430B5
:1007B00019F48CB58F7C8CBDF0E0E65DFF4FA49101
:1007C000B0E02FB7611105C0F8948C919095892302
:1007D00003C0F8948C91892B8C932FBF089500242B
:1007E000552704C0080E591F880F991F009729F03C
:1007F00076956795B8F37105B9F7802D952F089513
:10080000AA1BBB1B51E107C0AA1FBB1FA617B70736
:1008100010F0A61BB70B881F991F5A95A9F7809552
:100820009095BC01CD010895052E97FB16F4009418
:100830000FD057FD05D014D007FC02D046F408C0F5
:1008400050954095309521953F4F4F4F5F4F0895FC
:1008500090958095709561957F4F8F4F9F4F08952C
:10086000A1E21A2EAA1BBB1BFD010DC0AA1FBB1FB4
:10087000EE1FFF1FA217B307E407F50720F0A21B26
:10088000B30BE40BF50B661F771F881F991F1A9493
:1008900069F760957095809590959B01AC01BD01BD
:1008A000CF010895EE0FFF1F0590F491E02D0994FC
:1008B000CF93DF938230910510F482E090E0E091D5
:1008C000EA00F091EB0020E030E0A0E0B0E03097EB
:1008D00039F14081518148175907B8F04817590735
:1008E00071F482819381109729F013969C938E93D3
:1008F00012972CC09093EB008093EA0027C021153B
:10090000310531F04217530718F0A901DB0101C08E
:10091000EF019A01BD01DF010280F381E02DD7CF05
:1009200021153105F9F0281B390B2430310580F4ED
:100930008A819B816115710521F0FB01938382837C
:1009400004C09093EB008093EA00FE01329644C00D
:10095000FE01E20FF31F81939193225031093983F5
:1009600028833AC02091E8003091E900232B41F41C
:1009700020916200309163003093E9002093E800F9
:1009800020916000309161002115310541F42DB7AF
:100990003EB74091640050916500241B350BE091F7
:1009A000E800F091E900E217F307A0F42E1B3F0BDB
:1009B0002817390778F0AC014E5F5F4F24173507D1
:1009C00048F04E0F5F1F5093E9004093E800819379
:1009D000919302C0E0E0F0E0CF01DF91CF91089564
:1009E000CF93DF93009709F487C0FC0132971382FD
:1009F0001282C091EA00D091EB00209781F420810F
:100A00003181280F391F8091E8009091E900821709
:100A1000930779F5F093E900E093E8006DC0DE01FB
:100A200020E030E0AE17BF0750F412964D915C9174
:100A300013979D014115510509F1DA01F3CFB383F5
:100A4000A28340815181840F951F8A179B0771F4FF
:100A50008D919C911197840F951F029691838083AD
:100A600012968D919C911397938382832115310562
:100A700029F4F093EB00E093EA003EC0D90113960D
:100A8000FC93EE9312974D915D91A40FB51FEA1759
:100A9000FB0779F480819181840F951F0296D9011B
:100AA00011969C938E938281938113969C938E933F
:100AB0001297E0E0F0E08A819B81009719F0FE0137
:100AC000EC01F9CFCE01029628813981820F931F64
:100AD0002091E8003091E9002817390769F4309730
:100AE00029F41092EB001092EA0002C013821282E5
:100AF000D093E900C093E800DF91CF910895DC0125
:100B000001C06D9341505040E0F7089510E0C0E3FC
:100B1000D0E003C0FE01C8DE2296C233D107D1F770
:040B2000F894FFCF77
:100B24000000EC0080006F6F6C6C626C626C6F6C28
:100B3400626F6F6F626D626C626F6C6C6F626D621C
:100B44006C626C6C626F6F6C626C6C6C6C626F620A
:100B54006D626F626C6C6C6C626C6F6C626C626CFC
:100B64006C6C6C626C626C6C6C6F626C626F6C62ED
:100B74006F626F6C6F6F626D626C6C6C626C6C62D6
:040B84006F6C6C6FB7
:00000001FF
