:1000000018C03CC03BC03AC07AC238C037C036C006
:1000100035C034C033C032C031C030C02FC001023F
:100020000408102001010101010100380037BC0063
:10003000E80011241FBECFE5D2E0DEBFCDBF20E037
:10004000A6E6B0E001C01D92A239B207E1F710E0C8
:10005000A0E6B0E0E0E6FAE002C005900D92A63618
:10006000B107D9F710E0C0E3D0E003C02297FE014A
:10007000B9D3CE32D107D1F72FD2E6C4C1CFCF93B7
:10008000DF9382E790E0FED068E282E790E0E7D17C
:10009000C0E0D0E020916600309167004091680098
:1000A00050916900BE0182E790E07BD12196C0317A
:1000B000D10581F782E790E0DF91CF91EEC0EF921A
:1000C000FF920F931F93CF93DF93C0E0D0E0209176
:1000D0006600309167004091680050916900BE0150
:1000E00082E790E05ED12196C031D10581F782E7A9
:1000F00090E0D3D068EE73E080E090E06BD2C0E097
:10010000D0E00FE010E0EE24E394F12CC8018C1B4A
:100110009D0B970102C0220F331F8A95E2F7C90198
:100120008C799E79892B49F020916E0030916F0077
:10013000409170005091710008C020916A00309188
:100140006B0040916C0050916D00BE0182E790E021
:1001500028D182E790E0A1D060E971E080E090E0F2
:1001600039D22196C031D10589F6DF91CF911F9107
:100170000F91FF90EF90089523E041E060E170E07F
:1001800082E790E028D04FEF60E080E05FD160939D
:100190006E0070936F00809370009093710040E048
:1001A0006FEF80E053D160936A0070936B0080938F
:1001B0006C0090936D0040E060E080E047D1609378
:1001C00066007093670080936800909369000895BB
:1001D00082E790E04AC0FF920F931F93CF93DF9383
:1001E000EC01CB01F22E7983688363E070E095D255
:1001F0008C019B838A834C831D822B871C861D86E2
:100200001E861F8650E0FA01EC5DFF4FE491F0E09E
:10021000E65DFF4FE491F0E0F98BE88BFA01E25ED6
:10022000FF4F44914A8BE2D29F838E83009721F047
:10023000A80160E070E001D4F0FE04C081E088878E
:1002400019860BC0F2FE06C081E0888782E08987AC
:100250001A8605C0188681E0898782E08A87DF9147
:10026000CF911F910F91FF900895CF93DF93EC01F1
:100270008E819F81009709F051D360E08C81DF91DE
:10028000CF91E5C1CF93DF93EC0161E08C81DFD1A9
:1002900060E08C81DF91CF9111C2CF92DF92EF921B
:1002A000FF920F931F93CF93DF93CDB7DEB72797BE
:1002B0000FB6F894DEBF0FBECDBF8C01DC011696E1
:1002C0008D919C911797892B09F45CC05FD1F8013F
:1002D000C484D584E684F7846C197D098E099F094E
:1002E000623371058105910588F3F89482819381C9
:1002F0009A8389830680F781E02D7F01BFEFEB1A97
:10030000FB0A80818F83D8015096ED91FC91519723
:10031000908152968C91982B9E8390818095892311
:100320008D838D818C8388E08B835E816D814F818D
:100330003B812C8189819A81D701508347FD252FEC
:100340003A952083262F39F0441F00C000006083B7
:10035000000000C0F2CF38E04D91608300000197AB
:1003600061F7D8015196FC93EE9350974F833B83EE
:100370002C839A838983789409D1F80164877587DF
:100380008687978727960FB6F894DEBF0FBECDBF3E
:10039000DF91CF911F910F91FF90EF90DF90CF9061
:1003A00008958F929F92AF92BF92CF92DF92EF9279
:1003B000FF920F931F93CF93DF93FC014B018901B1
:1003C0009A01808191816817790798F5C901AA2758
:1003D000BB27A82EC12ED22EE32EFF24BC2CD02F5B
:1003E000C581CC2379F0D0E090E0BE0196D1A92E52
:1003F0008C2D90E0BE0191D1B92E802F90E0BE01EE
:100400008CD1D92FC40163E070E087D12681378178
:10041000280F391F8085D901A80FB11DAC928185A5
:10042000D901A80FB11DBC928285F901E80FF11D19
:10043000D083DF91CF911F910F91FF90EF90DF90CC
:10044000CF90BF90AF909F908F900895962F50E0DF
:1004500060E070E0592B682BCB01BA010895FF9240
:100460000F931F93CF93DF93EC01FF24F394F60EC9
:100470002D81F21659F10E811F812150A9F06F3F95
:1004800049F430E040E050E06FEF7FEF80E090E033
:1004900069D10CC08F2D90E0982F88270197622F8B
:1004A00070E04CD19B0102C020E030E0F8018A816D
:1004B0009B81AF01401B510B4817590730F48081D5
:1004C00090E0B9012AD19193F2CFFD82DF91CF91D3
:1004D0001F910F91FF900895A1D0D1DDF0DDFECFE7
:1004E00083B7887F83BF8AB58C7F81608ABD83B7DD
:1004F000877F83BF83B7887F836083BF08957894A5
:100500001F920F920FB60F9211242F933F938F9348
:100510009F93AF93BF938091860090918700A091A5
:100520008800B0918900309185002CE7230F2D378A
:1005300028F02FEF230F0196A11DB11D20938500F8
:100540008093860090938700A0938800B0938900E1
:1005500080918A0090918B00A0918C00B0918D00C9
:100560000196A11DB11D80938A0090938B00A093EA
:100570008C00B0938D00BF91AF919F918F913F916F
:100580002F910F900FBE0F901F9018953FB7F894C2
:1005900080918A0090918B00A0918C00B0918D0089
:1005A0002FB508B602FE05C02F3F19F00196A11D18
:1005B000B11D3FBF6627782F892F9A2F620F711DBB
:1005C000811D911D42E0660F771F881F991F4A9574
:1005D000D1F70895CF92DF92EF92FF92CF93DF93FE
:1005E0006B017C01D3DFEB01C114D104E104F10400
:1005F00071F0CCDF6C1B7D0B683E7340A8F381E08B
:10060000C81AD108E108F108C851DC4FEDCFDF91DD
:10061000CF91FF90EF90DF90CF900895789480B7BE
:10062000806880BF80B7806480BF8CB580648CBDDB
:100630008FEF8DBD80B7807F876080BF89B7846072
:1006400089BF4EDF86B1876086B9379A0895CF9308
:10065000DF9390E0FC01E25EFF4F2491FC01EC5D32
:10066000FF4F8491882339F190E0FC01E45DFF4F56
:10067000A491B0E0FC01E65DFF4F8491611106C0DA
:100680009FB7F8948C912095822313C0623069F44F
:10069000C82FD0E09FB7F8948C91322F30958323E8
:1006A0008C938881822B888305C09FB7F8948C91A6
:1006B000822B8C939FBFDF91CF910895A82FB0E03C
:1006C000FD01E25EFF4F9491FD01EC5DFF4FE4916F
:1006D000EE2311F1811103C08AB58F7304C08130FC
:1006E00021F48AB58F7C8ABD05C0843019F48CB59D
:1006F0008F7C8CBDF0E0E65DFF4FA491B0E02FB79A
:10070000611105C0F8948C919095892303C0F894E9
:100710008C91892B8C932FBF08950024552704C0FA
:10072000080E591F880F991F009729F07695679535
:10073000B8F37105B9F7802D952F0895AA1BBB1B3F
:1007400051E107C0AA1FBB1FA617B70710F0A61BD1
:10075000B70B881F991F5A95A9F780959095BC01F2
:10076000CD010895052E97FB16F400940FD057FD88
:1007700005D014D007FC02D046F408C0509540952F
:10078000309521953F4F4F4F5F4F0895909580953D
:10079000709561957F4F8F4F9F4F0895A1E21A2E5C
:1007A000AA1BBB1BFD010DC0AA1FBB1FEE1FFF1F15
:1007B000A217B307E407F50720F0A21BB30BE40B65
:1007C000F50B661F771F881F991F1A9469F76095AC
:1007D0007095809590959B01AC01BD01CF01089566
:1007E000EE0FFF1F0590F491E02D0994CF93DF9356
:1007F0008230910510F482E090E0E0919000F09159
:10080000910020E030E0A0E0B0E0309739F1408185
:10081000518148175907B8F04817590771F4828178
:100820009381109729F013969C938E9312972CC066
:10083000909391008093900027C02115310531F0ED
:100840004217530718F0A901DB0101C0EF019A011B
:10085000BD01DF010280F381E02DD7CF21153105E5
:10086000F9F0281B390B2430310580F48A819B81F3
:100870006115710521F0FB019383828304C090937D
:10088000910080939000FE01329644C0FE01E20F79
:10089000F31F8193919322503109398328833AC001
:1008A00020918E0030918F00232B41F42091620023
:1008B0003091630030938F0020938E002091600070
:1008C000309161002115310541F42DB73EB74091BB
:1008D000640050916500241B350BE0918E00F0916F
:1008E0008F00E217F307A0F42E1B3F0B28173907E0
:1008F00078F0AC014E5F5F4F2417350748F04E0F7C
:100900005F1F50938F0040938E008193919302C09C
:10091000E0E0F0E0CF01DF91CF910895CF93DF9336
:10092000009709F487C0FC01329713821282C091AC
:100930009000D0919100209781F420813181280F7F
:10094000391F80918E0090918F008217930779F55F
:10095000F0938F00E0938E006DC0DE0120E030E068
:10096000AE17BF0750F412964D915C9113979D01FD
:100970004115510509F1DA01F3CFB383A283408118
:100980005181840F951F8A179B0771F48D919C915B
:100990001197840F951F02969183808312968D91F3
:1009A0009C911397938382832115310529F4F09349
:1009B0009100E09390003EC0D9011396FC93EE9312
:1009C00012974D915D91A40FB51FEA17FB0779F4BB
:1009D00080819181840F951F0296D90111969C9375
:1009E0008E938281938113969C938E931297E0E06D
:1009F000F0E08A819B81009719F0FE01EC01F9CFAC
:100A0000CE01029628813981820F931F20918E009A
:100A100030918F002817390769F4309729F4109224
:100A200091001092900002C013821282D0938F0026
:100A3000C0938E00DF91CF910895DC0101C06D93CA
:100A400041505040E0F7089510E0C0E3D0E003C00B
:100A5000FE01C8DE2296C233D107D1F7F894FFCF4A
:060A60000000920080007E
:00000001FF
