:1000000097C0BBC0E7C0B9C05AC8B7C0B6C0B5C07A
:10001000B4C0B3C0B2C0B1C0B0C0AFC0AEC00501C3
:100020000906A101050719E029E715002501750159
:1000300095088102950175082565190029658100DB
:10004000C02A2B2800000000000000000000000073
:100050000000000029000000002C9EB4A0A1A2A472
:1000600034A6A7A5AE362D3738271E1F2021222300
:10007000242526B333B62EB7B89F84858687888912
:100080008A8B8C8D8E8F9091929394959697989958
:100090009A9B9C9D2F3130A3AD35040506070809B6
:1000A0000A0B0C0D0E0F1011121314151617181938
:1000B0001A1B1C1DAFB1B0B509022200010100805E
:1000C00032090400000103010100092101010001BE
:1000D0002223000705810308000A12011001000015
:1000E0000008C016DB2700010102000110034400D4
:1000F0006900670069004B00650079001C0364001B
:100100006900670069007300740075006D0070007D
:100110002E0063006F006D0004030904010204084F
:1001200010200101010101010038003779039C030F
:1001300011241FBECFE5D2E0DEBFCDBF10E0A0E6A8
:10014000B0E0E0E4F6E102C005900D92AA37B107F5
:10015000D9F720E0AAE7B0E001C01D92A73DB207A1
:10016000E1F710E0C7E9D0E003C02197FE012ED9E6
:10017000C639D107D1F790D757CA42CFA82FB92F88
:1001800080E090E041E050EA609530E009C02D91B8
:1001900082279795879510F084279527305EC8F3BE
:1001A0006F5FA8F30895EADF8D939D930895A6E00D
:1001B00088279927AA9569F00197E1F3B399FCCFB5
:1001C000B39BFECF81E09927A6B3019611F0A871E9
:1001D000D9F70895CF93CFB7CF93C395B39BE9F7E2
:1001E000B39B0BC0B39B09C0B39B07C0B39B05C0B7
:1001F000B39B03C0B39B01C0D5C00F92DF93C091E6
:10020000B600DD27C354DF4F012EB39B03C0DF913F
:100210000F90E6CF2F930F931F934F932FEF4F6FB6
:1002200006B303FB20F95F933F9350E03BE065C0CA
:1002300016B30126502953FDC89556B3012703FB79
:1002400025F92F7306B3B1F05027102713FB26F9B9
:1002500006B22230F0F000C016B3012703FB27F9E5
:100260000126502906B22430E8F54F77206816B3EE
:100270000000F6CF50274F7D206206B2102F0000FD
:1002800000C006B300265029102713FB26F906B23A
:10029000E2CF4F7B06B3206400C0DACF012650299D
:1002A000187106B269F14E7F2160012F16B328C084
:1002B000002650294D7F06B22260102F29C001264A
:1002C00050294B7F06B22460012F2DC016B30126A2
:1002D0005029477F2860000006B22EC04F7E06B32B
:1002E000206130C0422706B34993002650291027C9
:1002F00006B24FEF13FB20F9297F16B379F218717C
:1003000059F10126502906B2012703FB21F9237F69
:1003100006B371F2002650293150D0F006B21027F2
:1003200013FB22F9277E16B351F20126502901272B
:1003300003FB06B223F92F7C49F2000006B3102715
:1003400013FB24F90026502906B22F7939F270CF19
:1003500010E21ABF002719C03B503195C31BD04093
:1003600010E21ABF0881033C09F10B34F9F0209127
:10037000B4001981110F1213EDCF4A81441F0936C1
:1003800051F10D3211F0013E29F70093BB003F916E
:100390005F914F911F910F912F91DF910F90CAB7ED
:1003A000C5FD1BCFCF91CFBFCF9118952091BB003A
:1003B000222369F31091B900112379F534307AF1D1
:1003C0003093B9002093B5001091B6003BE0311B8B
:1003D0003093B60024C00091B9000130F4F40AE56E
:1003E0004F7049F43091670034FD1AC000936700E4
:1003F000CDE9D0E019C03091A80034FD11C00093C0
:10040000A800C9EAD0E010C0052710E000C021C054
:10041000052710E0C89508BB14C03AE501C032EDCD
:10042000032EC0E0D0E032E017B31861C39A08B3DE
:1004300017BB58E120E84FEF20FF052708BB2795A1
:1004400017951C3F28F700004552B0F720FF0527FD
:10045000279508BB17951C3FB8F629913A9561F787
:10046000077E1091BA00110F08BBC250D04011F0A6
:100470001093B40010E21ABF086017B3177E402F24
:10048000477E54E05A95F1F708BB17BB48BB7FCFB6
:100490000F931F93CF93DF93EC01162F042F8091BE
:1004A000A80084FD08C0ADD180E990E50197F1F77F
:1004B00000C00000F4CF0A831B8362E0CE010296E5
:1004C000DF91CF911F910F917AC1CF93DF93EC0110
:1004D000E62FF0E0E75CFF4F6491862F90E0880FF5
:1004E000892F881F990B892B11F440E001C040E24D
:1004F0006F77CE01CDDF40E060E0CE01C9DF81E063
:1005000090E0DF91CF91089580E990E09093B8005A
:100510008093B70080E008958AE790E0A3D268E274
:100520008AE790E068C44F925F926F927F928F92B9
:100530009F92AF92BF92CF92DF92EF92FF9240E0F4
:1005400060E08EE890E0A4DF40E060E08EE890E0BC
:100550009FDFE12CF12C42E860E08BE43DD49B016D
:10056000AC01B7018AE790E0BFD38FEFE81AF80A31
:1005700080E1E816F10479F78AE790E0E1D268EECD
:1005800073E080E090E014D6E12CF12C40E060E0D4
:1005900080E022D49B01AC01B7018AE790E0A4D3AC
:1005A0008AE790E0CDD268EE73E080E090E000D67C
:1005B0008FEFE81AF80A80E1E816F10439F7E12C28
:1005C000F12C42E860E08BE407D49B01AC01B70159
:1005D0008AE790E089D38FEFE81AF80A80E1E816FD
:1005E000F10479F78AE790E0ABD268EC70E080E044
:1005F00090E0DED5E12CF12C40E060E080E0ECD32F
:100600009B01AC01B7018AE790E06ED38FEFE81A47
:10061000F80A80E1E816F10479F78AE790E090D2D1
:1006200068EC70E080E090E0C3D5E12CF12C42E86A
:1006300060E08BE4D1D39B01AC01B7018AE790E085
:1006400053D38FEFE81AF80A80E1E816F10479F73E
:100650008AE790E075D268EC70E080E090E0A8D581
:10066000E12CF12C40E060E080E0B6D39B01AC01CE
:10067000B7018AE790E038D38FEFE81AF80A80E1F3
:10068000E816F10479F78AE790E05AD268EC70E056
:1006900080E090E08DD568E670E08EE890E0F4D4DC
:1006A00055D54B015C0188E8C82E83E1D82EE12C9A
:1006B000F12C4CD52B013C01C61AD70AE80AF90ADD
:1006C000C80CD91CEA1CFB1C9CD0530142011C1411
:1006D0001D041E041F046CF3FF90EF90DF90CF9079
:1006E000BF90AF909F908F907F906F905F904F9052
:1006F000089583E790E090938F0080938E00F894A4
:10070000BB9A27EA86E99CE0215080409040E1F7BF
:1007100000C00000BB9889D178941092910010928B
:10072000900062E080E990E04AD022E541E060E19B
:1007300070E08AE790E0BBC28AE790E081C1DF9277
:10074000EF92FF920F931F93CF93DF9308E010E097
:10075000C0E0D0E8DD2EDC0ED1BE29DD7C0184E3D3
:10076000E81689E0F8060CF4CD2DD6950150110954
:1007700089F78FEF8C0F81BF0C2F10E00F5F1F4F99
:1007800081B790E0081719078CF011DD8453994068
:1007900097FF03C09195819591098E159F0514F4DB
:1007A000C1B77C0181B78F5F81BFEACFC1BFDF9145
:1007B000CF911F910F91FF90EF90DF900895CF930D
:1007C000C62F2091A80024FF07C03091A90028E877
:1007D00023272093A90003C02AE52093A8002C2FEB
:1007E000FC01AAEAB0E081918D9321501216DCF34E
:1007F0006C2F8AEA90E0D7DCCC5FC093A800CF9141
:100800000895CF93DF938091B900835087FDA8C0EE
:100810009091B5009D3209F0A1C0883009F09EC0CA
:100820008091B600CCE0D0E0C81BD109C354DF4FA3
:1008300083EC80939D008AE580936700109293007B
:100840008881807619F0CE015FDE7FC09A81109298
:10085000A6008981811106C01092A70026EA30E027
:1008600082E06FC0853019F49093BA0067C086307B
:1008700009F04EC08B81813041F48AED90E0909375
:10088000B8008093B70082E13FC0823041F488EB2A
:1008900090E09093B8008093B70082E235C0833037
:1008A000F1F4911108C088E191E09093B800809331
:1008B000B70084E029C0913041F48CEF90E0909330
:1008C000B8008093B7008CE11FC09230E1F48CEE49
:1008D00090E09093B8008093B70080E115C081321A
:1008E00041F48AEC90E09093B8008093B70089E0DF
:1008F0000BC0823241F48EE190E09093B800809377
:10090000B70083E201C080E090E4909393001DC0A3
:10091000883069F0893019F49093BC000FC08A3098
:1009200049F08B3059F48BE48093A90007C02CEB7D
:1009300030E002C026EA30E081E003C026EA30E081
:1009400080E03093B8002093B7009F81911104C0DC
:100950009E81981708F4892F809366001092B90041
:100960008091670084FF46C0809166008F3F09F444
:1009700041C0C82F893008F0C8E08C1B8093660006
:1009800090919D0088E8892780939D00CC2331F1C8
:100990004091B7005091B8008091930086FF0AC043
:1009A000AEE9B0E0FA019C2F84918D93319691507D
:1009B000D9F708C0DA01EEE9F0E09C2F8D91819320
:1009C0009150E1F72FEF2C0F30E02F5F3F4FCA011E
:1009D000820F931F9093B8008093B7006C2F8EE91D
:1009E00090E0E1DBCC5FCC3019F08FEF80936600B4
:1009F000C093670084E196B3987131F48150D9F7C0
:100A00001092BA001092B400C1E08111C0E0909140
:100A10009200C91739F0882319F0F89490DE789481
:100A2000C0939200DF91CF910895AC9A8BB780620A
:100A30008BBFE8EAF0E08BE481838AE58083089548
:100A4000CF93DF93EC018F819885009709F05CD5F7
:100A50008D8187FD04C060E0DF91CF91E6C3DF9117
:100A6000CF910895CF93DF93EC018D8187FD05C071
:100A700061E0DBD360E08D8113D481E08883DF9176
:100A8000CF910895EF92FF920F931F93CF93DF932F
:100A9000EC017B018F819885009709F035D59C8505
:100AA0008985981719F084E090E002C083E090E017
:100AB000B70129D48C019C838B838ED498878F8334
:100AC000009739F0A80160E070E0A7D5FA82E982CA
:100AD00004C01C821B821A821982DF91CF911F9160
:100AE0000F91FF90EF900895FC0141E0948581857E
:100AF000981340E0562F529556955695537054874B
:100B0000862F90E09C0174E0359527957A95E1F762
:100B10002370218795958795959587958370828712
:100B20006370638787819085892B49F081E0521338
:100B300080E0481721F061817281CF01A3CF089531
:100B4000CF92DF92EF92FF920F931F93CF93DF9399
:100B5000CDB7DEB727970FB6F894DEBF0FBECDBF77
:100B60008C01DC0117968D919C911897892B09F4C3
:100B700062C0F8D2F801C584D684E784F088DC012D
:100B8000CB018C199D09AE09BF098C329140A1059A
:100B9000B10578F3F894D80113968D919C91149730
:100BA0009A8389831796ED91FC9118977F01BFEF87
:100BB000EB1AFB0A80818F83D8015196ED91FC914D
:100BC0005297908153968C91982B9E83908180951B
:100BD00089238D838D818C8388E08B835E816D81F9
:100BE0004F813B812C8189819A81D701508347FDB8
:100BF000252F3A952083262F39F0441F00C000008E
:100C00006083000000C0F2CF38E04D9160830000A7
:100C1000019761F7D8015296FC93EE9351974F8359
:100C20003B832C839A83898378949CD2F8016587CF
:100C300076878787908B27960FB6F894DEBF0FBE16
:100C4000CDBFDF91CF911F910F91FF90EF90DF907B
:100C5000CF9008951F93CF93DF93EC01162F8881D7
:100C6000882329F08D8187FD02C060E0DED21D83DC
:100C70008881882331F061E0812FD7D260E0812F15
:100C80000FD3812F90E0FC01EE5DFE4FE491F0E088
:100C9000E85DFE4FE491F0E0FA8BE98BFC01E45E45
:100CA000FE4FE491EB8BDF91CF911F910895EF926E
:100CB000FF921F93CF93DF93EC017B01142F1882D7
:100CC0001E8218861F821D861E861F86188A622F26
:100CD0000BDFB701CE01D6DE612FCE01DF91CF91C0
:100CE0001F91FF90EF90B6CF4F925F926F927F92DD
:100CF0008F929F92AF92BF92DF92EF92FF920F93EB
:100D00001F93CF93DF93FC01EB0189019A0181814D
:100D100092816817790708F04FC02901662477246B
:100D2000D42C812E922EA32EBB24E82CF02E4681AB
:100D3000442389F0A42FB0E0842D90E0BD01E3D2DC
:100D4000D92E882D90E0BD01DED2E92E802F90E0D3
:100D5000BD01D9D2F92E84859185A781B0858913EB
:100D600007C0CE0163E070E0CED2A80FB91F16C055
:100D7000CC0FDD1FCC0FDD1FAC0FBD1F032F1127C4
:100D800022273327ED01C80FD11D411102C0902F3A
:100D900004C0842F90E0B801B6D298838185ED011C
:100DA000C80FD11DD8828285ED01C80FD11DE88200
:100DB0008385A80FB11DFC92DF91CF911F910F91F8
:100DC000FF90EF90DF90BF90AF909F908F907F90BB
:100DD0006F905F904F9008950F931F93962F50E060
:100DE00060E070E0592B8A019B01282BC901B801F2
:100DF0001F910F910895FF920F931F93CF93DF934D
:100E0000EC01FF24F394F60E2E81F21659F10F81B6
:100E100018852150A9F06F3F49F430E040E050E0E0
:100E20006FEF7FEF80E090E0B5D20CC08F2D90E0A7
:100E3000982F88270197622F70E076D29B0102C01D
:100E400020E030E0F8014B815C81CF01801B910BE9
:100E50008417950730F4808190E0B90154D29193C2
:100E6000F2CFFE82DF91CF911F910F91FF900895F5
:100E70000F931F93CF93DF93EC018B01F8016191E6
:100E80008F01662341F0E881F9810190F081E02D26
:100E9000CE010995F3CFDF91CF911F910F91089566
:100EA000EF92FF920F931F93CF93DF937C01EB019F
:100EB0008B01040F151FC017D10751F06991D7019D
:100EC000ED91FC910190F081E02DC7010995F3CFE0
:100ED000DF91CF911F910F91FF90EF900895DC016A
:100EE000ED91FC910280F381E02D09944F925F9285
:100EF0006F927F928F929F92AF92BF92EF92FF92EA
:100F00000F931F93CF93DF93CDB7DEB7A0970FB6A4
:100F1000F894DEBF0FBECDBF8C01411551056105B0
:100F20007105C1F440E050E060E3A0960FB6F8947C
:100F3000DEBF0FBECDBFDF91CF911F910F91FF900C
:100F4000EF90BF90AF909F908F907F906F905F9049
:100F50004F9082C0CE0101967C01812C912C5401CE
:100F6000422E512C612C712C9FEF891A990AA90AE3
:100F7000B90ACB01BA01A3019201EAD1942F852FBE
:100F8000F70161937F01A901692F782F4115510560
:100F90006105710549F7F1E08F1A9108A108B108C0
:100FA000FE01E80DF91D61816A3010F4605D01C039
:100FB000695C40E050E0C8014FD081149104A10465
:100FC000B10449F7A0960FB6F894DEBF0FBECDBFAF
:100FD000DF91CF911F910F91FF90EF90BF90AF9055
:100FE0009F908F907F906F905F904F900895CF92D9
:100FF000DF92EF92FF92CF93DF93EC016A017B01C6
:101000002115310569F4E881F9810190F081E02D25
:10101000642FDF91CF91FF90EF90DF90CF900994F4
:101020002A30310579F477FF0CC040E050E06DE2E2
:1010300013D0F094E094D094C094C11CD11CE11C56
:10104000F11C2AE0B701A601CE01DF91CF91FF90FC
:10105000EF90DF90CF904ACF9A01462F660F550B45
:10106000660B770BC4CFCF93DF93EC0140E050E0E9
:101070006DE0F2DF40E050E06AE0CE01EDDF82E0BB
:1010800090E0DF91CF910895CF93DF93EC0127DFBC
:10109000CE01DF91CF91E7CFAFD03EDA44DAFECF79
:1010A00083B7887F83BF8AB58C7F81608ABD83B711
:1010B000877F83BF83B7887F836083BF08957894D9
:1010C0001F920F920FB60F9211242F933F938F937D
:1010D0009F93AF93BF938091950090919600A091BC
:1010E0009700B0919800309194002CE7230F2D3792
:1010F00028F02FEF230F0196A11DB11D209394001E
:101100008093950090939600A0939700B0939800D9
:101110008091990090919A00A0919B00B0919C00C1
:101120000196A11DB11D8093990090939A00A09300
:101130009B00B0939C00BF91AF919F918F913F9185
:101140002F910F900FBE0F901F9018952FB7F89406
:101150006091950070919600809197009091980011
:101160002FBF08953FB7F8948091990090919A000D
:10117000A0919B00B0919C002FB508B602FE05C05F
:101180002F3F19F00196A11DB11D3FBFBA2FA92F06
:10119000982F8827820F911DA11DB11DBC01CD0183
:1011A00042E0660F771F881F991F4A95D1F708956F
:1011B000CF92DF92EF92FF92CF93DF936B017C018E
:1011C000D1DFEB01C114D104E104F10471F0CADFF5
:1011D0006C1B7D0B683E7340A8F381E0C81AD108F0
:1011E000E108F108C851DC4FEDCFDF91CF91FF90BE
:1011F000EF90DF90CF900895789480B7806880BF9B
:1012000080B7806480BF8CB580648CBD8FEF8DBD4E
:1012100080B7807F876080BF89B7846089BF40DFE7
:1012200086B1876086B9379A0895CF93DF9390E0AF
:10123000FC01E45EFE4F2491FC01EE5DFE4F8491C3
:10124000882359F190E0FC01E65DFE4FE491CE2F3A
:10125000D0E0FC01E85DFE4F8491611108C09FB7AA
:10126000F8948881E22FE095E823E8830EC062308D
:1012700071F4A82FB0E09FB7F8948881322F309591
:1012800083238883EC91E22BEC939FBF06C08FB73A
:10129000F894E881E22BE8838FBFDF91CF91089526
:1012A000282F30E0F901E45EFE4F9491F901EE5DE4
:1012B000FE4FE491EE2331F1811103C08AB58F73A3
:1012C00004C0813021F48AB58F7C8ABD05C084308A
:1012D00019F48CB58F7C8CBDF0E0E85DFE4FA491D5
:1012E000B0E0611109C02FB7F8948C91E92FE09517
:1012F000E823EC932FBF08958FB7F894EC91E92B76
:10130000EC938FBF08950024552704C0080E591F81
:10131000880F991F009729F076956795B8F37105A6
:10132000B9F7802D952F0895AA1BBB1B51E107C06B
:10133000AA1FBB1FA617B70710F0A61BB70B881F65
:10134000991F5A95A9F780959095BC01CD010895F4
:10135000A1E21A2EAA1BBB1BFD010DC0AA1FBB1FB9
:10136000EE1FFF1FA217B307E407F50720F0A21B2B
:10137000B30BE40BF50B661F771F881F991F1A9498
:1013800069F760957095809590959B01AC01BD01C2
:10139000CF010895052E97FB16F400940FD057FD4A
:1013A00005D0D6DF07FC02D046F408C05095409522
:1013B000309521953F4F4F4F5F4F08959095809501
:1013C000709561957F4F8F4F9F4F0895EE0FFF1FD0
:1013D0000590F491E02D09940F931F93CF93DF9321
:1013E0008230910510F482E090E0E091D500F09118
:1013F000D60020E030E0A0E0B0E0309719F1408165
:1014000051810281138148175907C8F08417950745
:1014100069F4109731F012960C93129713961C935F
:1014200027C00093D5001093D60022C021153105A6
:1014300019F04217530718F49A01BD01EF01DF01BB
:10144000F801DBCF21153105F9F0281B390B2430C9
:10145000310580F48A819B816115710521F0FB01C2
:101460009383828304C09093D6008093D500FE01BD
:10147000329644C0FE01E20FF31F819391932250F4
:101480003109398328833AC02091D3003091D400A8
:10149000232B41F420916200309163003093D400FB
:1014A0002093D30020916000309161002115310517
:1014B00041F42DB73EB74091640050916500241B64
:1014C000350BE091D300F091D400E217F307A0F4BC
:1014D0002E1B3F0B2817390778F0AC014E5F5F4F8A
:1014E0002417350748F04E0F5F1F5093D4004093E8
:1014F000D3008193919302C0E0E0F0E0CF01DF914F
:10150000CF911F910F910895CF93DF93009709F426
:1015100081C0FC01329713821282A091D500B09154
:10152000D600109781F420813181820F931F209182
:10153000D3003091D4002817390751F5F093D40027
:10154000E093D30067C0ED0120E030E0CE17DF0765
:1015500040F44A815B819E0141155105F1F0EA0199
:10156000F5CFD383C28340815181840F951FC81763
:10157000D90759F488819981840F951F0296918328
:1015800080838A819B81938382832115310529F48D
:10159000F093D600E093D5003DC0E901FB83EA83D8
:1015A00049915991C40FD51FEC17FD0761F4808153
:1015B0009181840F951F0296E90199838883828126
:1015C00093819B838A83E0E0F0E012968D919C9159
:1015D0001397009719F0FD01DC01F7CF8D919C91D5
:1015E00011979D012E5F3F4F820F931F2091D300D3
:1015F0003091D4002817390769F4309729F41092F4
:10160000D6001092D50002C013821282B093D4008B
:10161000A093D300DF91CF910895DC0101C06D93B9
:1016200041505040E0F7089510E0C7E9D0E003C012
:10163000FE01CCDE2196C839D107D1F7F894FFCF4F
:101640000000D7008000FF5A3078626330650000E8
:0A1650000000006502380750070093
:00000001FF
